:041000000CEF08F0F9
:10100800FACF07F0FBCF08F0E9CF09F083ED11F034
:101018004EEF15F00001000A006400E803102741B4
:10102800542B43495053544152543D225443502267
:101038002C222573222C25640D0A0041542B434988
:101048005053454E443D25640D0A005749464920F2
:10105800474F5420495000434F4E4E4543540028B3
:101068006E756C6C2900434C4F534544002B495016
:10107800442C003A000018EC15F0000E936E0001A5
:10108800000E166E0001A60E156E000E186E000EEC
:10109800176E000E1A6E400E196E87EC16F00001DE
:1010A800000E166E0001600E156E16EC16F09D0E01
:1010B800166E200E156E3AEC12F0800E236E250E79
:1010C800246E000E256E000E266EB4EC13F07C0E16
:1010D800166E0F0E156E29EC0CF07C0E166E0F0EA8
:1010E800156E5EEC0BF07C0E166E0E0E156E5EEC39
:1010F8000BF0B5EC10F00C0E99EC0FF084B627D07D
:10110800FF0025D07C0E166E0F0E156E5EEC0BF0F0
:101118007C0E166E0E0E156E29EC0CF0000E166E77
:10112800640E156E6FEC16F07C0E166E0F0E156EB3
:1011380029EC0CF07C0E166E0E0E156E5EEC0BF0A4
:10114800000E166E640E156E6FEC16F045064566B9
:10115800D9D7000120EEA4F0DE52DD50800A800FBE
:10116800010ED8B4DF5CD8A016D00001000E166EB0
:101178000001600E156E71EC14F0466E4850010DBA
:101188000001A60EF324D96E0001000EF420DA6ED9
:1011980046C0DFFF482A4850D8B4B0D70001000E37
:1011A800166E0001A60E156E000E186E3E0E176E16
:1011B800E2EC14F016501510D8B40ED0000E166ECE
:1011C800640E156EC7EC16F0000E176E3B0E166E09
:1011D80035EC16F09DEC16F00001000E256E0001AE
:1011E800A60E246E100E276E750E266E8CEC12F06D
:1011F80025502410D8B4B6D00001000E166E000198
:10120800A60E156E000E186E3A0E176EE2EC14F06C
:1012180016501510D8B4A6D00001000E166E0001A5
:10122800A60E156E000E186E2C0E176EE2EC14F05A
:10123800010E152400010001F36F000E16200001B5
:10124800F46F0001F4C023F00001F3C022F0100E87
:10125800256E7B0E246E39EC10F022C0F3F023C00B
:10126800F4F00001F4C01CF00001F3C01BF04BECDB
:101278000EF01B5000010001F26F9DEC16F022D019
:10128800000120EEA4F0DE52DD50800A800F010E2E
:10129800D8B4DF5CD8A016D00001000E166E00018D
:1012A800600E156E71EC14F0336E4850010D00019C
:1012B800A60EF324D96E0001000EF420DA6E33C0B6
:1012C800DFFF482A00010001F251485CD8A0D8D7B6
:1012D800336E050E456E3350000E236E000E226EDF
:1012E800100E256E7B0E246E39EC10F022C0F3F040
:1012F80023C0F4F0010E99EC0FF0120E000100016A
:10130800F26508D0000E00010001F16F010E000126
:10131800F06F19D000010001F251336E346A331EA8
:10132800341E334A342A130E3324156E000E34202B
:10133800166E000E186E020E176EE2EC11F015C054
:10134800F0F016C0F1F0F0C0EFF0EFC018F00001B7
:10135800F4C01AF00001F3C019F0010E28EC13F0E4
:101368009DEC16F00001000E256E0001A60E246EFD
:10137800100E276E400E266E8CEC12F025502410AD
:10138800D8B4BCD67C0E166E0F0E156EF1EC0CF0B0
:101398000001000E256E0001A60E246E100E276EA9
:1013A800530E266E8CEC12F025502410D8B414D0AD
:1013B800100E2B6E270E2A6E0101010E2D6E0101F3
:1013C800000E2C6E37C02EF038C02FF03EEC0AF01D
:1013D800336E010E4B6E33500001000E256E000176
:1013E800A60E246E100E276E5F0E266E8CEC12F081
:1013F80025502410D8B413D04B50D8B410D0100EA8
:101408002B6E430E2A6E000E166E3B0E156EAAEC5E
:1014180015F015C02CF016C02DF03EEC0AF00001B6
:10142800000E256E0001A60E246E100E276E6E0E9D
:10143800266E8CEC12F025502410D8B406D07C0E01
:10144800166E0F0E156E5EEC0BF00001000E166E98
:101458000001A60E156E000E186E000E176E000E17
:101468001A6E400E196E87EC16F0336E000E486E39
:10147800335044D6000E00010001E96F2C0E000124
:101488000001E86F09D100010001EE51250AD8B426
:1014980006D000010001EE51F6EC16F0FDD0306EDA
:1014A800000E00010001E66F30504ED0E8C0D9FFB1
:1014B800E9C0DAFF0001DECFEAF00001DDCFEBF092
:1014C800020E00010001E827000E0001E9230001D7
:1014D8000001EB51EA11D8A421D0100E000100013F
:1014E800EB6F670E00010001EA6F18D00001EAC037
:1014F800F6FF0001EBC0F7FFF86A070EF76403D0A8
:101508000800F55005D0F6CFE9FFF7CFEAFFEF5016
:10151800F6EC16F000010001EA4BEB2B0001EAC0E3
:10152800F6FF0001EBC0F7FFF86A070EF76403D077
:101538000800F55005D0F6CFE9FFF7CFEAFFEF50E6
:101548000009D8B4A9D0D2D72AC0F6FF2BC0F7FF1C
:101558002A4A2B2A08000001F5CFEEF00001EE51CF
:10156800000AD8B4A6D0640AD8B407D00D0AD8B4F3
:1015780004D01A0AD8B49AD78FD0E8C0D9FFE9C0E6
:10158800DAFF0001DECFEAF00001DDCFEBF0020E5A
:1015980000010001E827000E0001E9230001000115
:1015A800EB51800AF36E800EF35C000ED8B4EA5D4E
:1015B800D8B00BD0030E00010001E61300010001B2
:1015C800EA6D0001EB1FD8B0EB2B306E010E000165
:1015D8000001EE6F305000010001EE51050AD8B449
:1015E8001ED000010001EE51020D1D0EF324F66E0F
:1015F800100EF420F76E0900F5CF30F00900F5CF92
:1016080031F0305000010001EA5D31500001000165
:10161800EB59D8A004D000010001EE2BDCD7E6C0BE
:1016280030F0030E3016D8B403D02D0EF6EC16F0B9
:10163800EEC0E7F02AD000010001E751020D1D0EAF
:10164800F324F66E100EF420F76E0900F5CF1EF0A5
:101658000A00F5CF1FF0EAC01CF0EBC01DF07FECCC
:1016680015F01CC024F01DC025F0000E276E0A0ED0
:10167800266ED3EC15F02450300F00010001EE6FF8
:1016880000010001EE51F6EC16F000010001E70739
:101698000001E729D8A4CFD72AC0F6FF2BC0F7FF4F
:1016A8002A4A2B2A08000001F5CFEEF00001EE6768
:1016B800EAD6120060D092908090C6D09292809222
:1016C800C3D092948094C0D092968096BDD09298C0
:1016D8008098BAD0929A809AB7D0000E926E000E77
:1016E800896EB2D093908190AFD093928192ACD012
:1016F80093948194A9D093968196A6D09398819833
:10170800A3D0939A819AA0D0939C819C9DD0939EBC
:10171800819E9AD0000E936E000E8A6E95D094909A
:10172800829092D0949282928FD0949482948CD00A
:10173800949C829C89D0949E829E86D0000E946E42
:10174800000E8B6E81D0959083907ED09592839277
:101758007BD09594839478D09596839675D09598F8
:10176800839872D0959A839A6FD0959C839C6CD0FD
:10177800959E839E69D015C017F016C018F01850B2
:101788000F0AD8B404D0730AD8B40CD05DD017505F
:10179800800AD8B4A2D7010AD8B4BCD7030AD8B4EF
:1017A800CDD752D01750000AD8B485D7010AD8B47B
:1017B80085D7030AD8B485D7010AD8B485D7070ACC
:1017C800D8B485D7010AD8B485D70D0AD8B48AD732
:1017D800010AD8B48AD7030AD8B48AD7010AD8B478
:1017E8008AD7070AD8B48AD7010AD8B48AD7030A8D
:1017F800D8B48AD7010AD8B48AD71F0AD8B48FD7E1
:10180800010AD8B48FD7030AD8B48FD7040AD8B43A
:101818008FD7010AD8B48FD70F0AD8B494D7010A42
:10182800D8B494D7030AD8B494D7010AD8B494D7B3
:10183800070AD8B494D7010AD8B494D7030AD8B4FD
:1018480094D7010AD8B494D712005DD092908080C2
:10185800C3D092928082C0D092948084BDD0929658
:101868008086BAD092988088B7D0929A808AB4D06D
:10187800000E926E8968B0D093908180ADD093921B
:101888008182AAD093948184A7D093968186A4D08C
:1018980093988188A1D0939A818A9ED0939C818CB9
:1018A8009BD0939E818E98D0000E936E8A6894D0B8
:1018B8009490828091D0949282828ED094948284E3
:1018C8008BD0949C828C88D0949E828E85D0000E7A
:1018D800946E8B6881D0959083807ED09592838218
:1018E8007BD09594838478D09596838675D0959887
:1018F800838872D0959A838A6FD0959C838C6CD09C
:10190800959E838E69D015C017F016C018F0185030
:101918000F0AD8B404D0730AD8B40CD05DD01750CD
:10192800800AD8B4A5D7010AD8B4BED7030AD8B458
:10193800CED752D01750000AD8B488D7010AD8B4E5
:1019480088D7030AD8B488D7010AD8B488D7070A31
:10195800D8B488D7010AD8B488D70D0AD8B48CD798
:10196800010AD8B48CD7030AD8B48CD7010AD8B4E2
:101978008CD7070AD8B48CD7010AD8B48CD7030AF5
:10198800D8B48CD7010AD8B48CD71F0AD8B490D74A
:10199800010AD8B490D7030AD8B490D7040AD8B4A7
:1019A80090D7010AD8B490D70F0AD8B494D7010AAF
:1019B800D8B494D7030AD8B494D7010AD8B494D722
:1019C800070AD8B494D7010AD8B494D7030AD8B46C
:1019D80094D7010AD8B494D7120051D0929080704D
:1019E800A8D092928072A5D092948074A2D0929638
:1019F80080769FD0929880789CD0929A807A99D05D
:101A08009390817096D09392817293D093948174BD
:101A180090D0939681768DD0939881788AD0939A36
:101A2800817A87D0939C817C84D0939E817E81D05B
:101A3800949082707ED0949282727BD094948274B7
:101A480078D0949C827C75D0949E827E72D095903A
:101A580083706FD0959283726CD09594837469D09B
:101A68009596837666D09598837863D0959A837A8D
:101A780060D0959C837C5DD0959E837E5AD015C09E
:101A880017F016C018F018507C0AD8A452D0175076
:101A9800000AD8B4A3D7010AD8B4A3D7030AD8B484
:101AA800A3D7010AD8B4A3D7070AD8B4A3D7010A81
:101AB800D8B4A3D70D0AD8B4A3D7010AD8B4A3D7EA
:101AC800030AD8B4A3D7010AD8B4A3D7070AD8B44D
:101AD800A3D7010AD8B4A3D7030AD8B4A3D7010A55
:101AE800D8B4A3D71F0AD8B4A3D7010AD8B4A3D7A8
:101AF800030AD8B4A3D7040AD8B4A3D7010AD8B420
:101B0800A3D70F0AD8B4A3D7010AD8B4A3D7030A16
:101B1800D8B4A3D7010AD8B4A3D7070AD8B4A3D78F
:101B2800010AD8B4A3D7030AD8B4A3D7010AD8B4F2
:101B3800A3D7120051D092908070A8D09292807250
:101B4800A5D092948074A2D0929680769FD09298D5
:101B580080789CD0929A807A99D09390817096D010
:101B68009392817293D09394817490D09396817656
:101B78008DD0939881788AD0939A817A87D0939CD4
:101B8800817C84D0939E817E81D0949082707ED017
:101B9800949282727BD09494827478D0949C827C44
:101BA80075D0949E827E72D0959083706FD09592F6
:101BB80083726CD09594837469D09596837666D039
:101BC8009598837863D0959A837A60D0959C837C26
:101BD8005DD0959E837E5AD001C003F002C004F008
:101BE80004507C0AD8A452D00350000AD8B4A3D712
:101BF800010AD8B4A3D7030AD8B4A3D7010AD8B422
:101C0800A3D7070AD8B4A3D7010AD8B4A3D70D0A13
:101C1800D8B4A3D7010AD8B4A3D7030AD8B4A3D792
:101C2800010AD8B4A3D7070AD8B4A3D7010AD8B4ED
:101C3800A3D7030AD8B4A3D7010AD8B4A3D71F0AD5
:101C4800D8B4A3D7010AD8B4A3D7030AD8B4A3D762
:101C5800040AD8B4A3D7010AD8B4A3D70F0AD8B4B2
:101C6800A3D7010AD8B4A3D7030AD8B4A3D7010AC3
:101C7800D8B4A3D7070AD8B4A3D7010AD8B4A3D72E
:101C8800030AD8B4A3D7010AD8B4A3D7120002D044
:101C98001B4A1C2A1BC0F6FF1CC0F7FFF86A070E78
:101CA800F76403D00800F55005D0F6CFE9FFF7CF69
:101CB800EAFFEF50200AD8B4EBD71BC0F6FF1CC0D0
:101CC800F7FFF86A070EF76403D00800F55005D04F
:101CD800F6CFE9FFF7CFEAFFEF50090AD8B4D8D713
:101CE800000E216E000E206E1D6E000E1F6E1D5020
:101CF8001BC0F6FF1CC0F7FFF86A070EF76403D095
:101D08000800F55005D0F6CFE9FFF7CFEAFFEF500E
:101D18002D0AD8A402D01F2A3AD01BC0F6FF1CC037
:101D2800F7FFF86A070EF76403D00800F55005D0EE
:101D3800F6CFE9FFF7CFEAFFEF502B0AD8A429D056
:101D480026D020C015F021C016F0000E186E0A0E1D
:101D5800176E52EC16F01BC0F6FF1CC0F7FFF86AAE
:101D6800070EF76403D00800F55005D0F6CFE9FF59
:101D7800F7CFEAFFEF501D6E1E6A15501D2616504C
:101D88001E22D00E1D24206EFF0E1E20216E1B4A1F
:101D98001C2A1BC0F6FF1CC0F7FFF86A070EF76481
:101DA80003D00800F55005D0F6CFE9FFF7CFEAFFDA
:101DB800EF50B2EC16F0D8B0C4D71F50D8B40DD03D
:101DC80020C01DF021C01EF01D1E1E1E1D4A1E2A09
:101DD8001DC01BF01EC01CF004D020C01BF021C089
:101DE8001CF01200E8CF17F08A928A80156A17AEA5
:101DF80001D0152A010E1516153A15468A501518E0
:101E0800DF0B15188A6E17C015F0060E166ED890DF
:101E18001532162EFCD7010E1516153A8A501518CC
:101E2800EF0B15188A6E17C015F0050E166ED890B0
:101E38001532162EFCD7010E1516154615461546F1
:101E48008A501518F70B15188A6E17C015F0153A31
:101E58000F0E1516010E1516154615468A5015183B
:101E6800FB0B15188A6E00F000F000F000F000F08F
:101E780000F000F000F000F000F08A8200F000D0DE
:101E880000D08A9217C015F0D8901532D890153224
:101E9800D8901532010E1516153A15468A501518A0
:101EA800DF0B15188A6E17C015F0D8901532D89028
:101EB8001532010E1516153A8A501518EF0B15181C
:101EC8008A6E17C015F0D8901532010E15161546F2
:101ED800154615468A501518F70B15188A6E17C03F
:101EE80015F0010E1516154615468A501518FB0BE8
:101EF80015188A6E00F000F000F000F000F000F015
:101F080000F000F000F000F08A8200F000D000D06D
:101F18008A9200F000D000D0080E156E230EE82E2D
:101F2800FED7152EFCD700F01200E8CF17F08A92E2
:101F38008A90156A17AE01D0152A010E1516153AA2
:101F480015468A501518DF0B15188A6E17C015F03C
:101F5800060E166ED8901532162EFCD7010E1516E1
:101F6800153A8A501518EF0B15188A6E17C015F018
:101F7800050E166ED8901532162EFCD7010E1516C2
:101F88001546154615468A501518F70B15188A6E0A
:101F980017C015F0153A0F0E1516010E1516154631
:101FA80015468A501518FB0B15188A6E00F000F0BC
:101FB80000F000F000F000F000F000F000F000F099
:101FC8008A8200F000D000D08A9217C015F0D8900D
:101FD8001532D8901532D8901532010E1516153ACB
:101FE80015468A501518DF0B15188A6E17C015F09C
:101FF800D8901532D8901532010E1516153A8A5018
:102008001518EF0B15188A6E17C015F0D8901532F1
:10201800010E15161546154615468A501518F70B64
:1020280015188A6E17C015F0010E151615461546B7
:102038008A501518FB0B15188A6E00F000F000F096
:1020480000F000F000F000F000F000F000F08A82EC
:1020580000F000D000D08A92080E156E230EE82EEC
:10206800FED7152EFCD700F0120023502210D8A45A
:1020780004D044C023F043C022F023502210D8A437
:1020880005D0000E236E000E226E6AD023C01CF00D
:1020980022C01BF025C01EF024C01DF0F3EC13F085
:1020A8001B5022261C50232222C0F6FF23C0F7FF14
:1020B800F86A070EF76403D00800F55005D0F6CF8C
:1020C800E9FFF7CFEAFFEF500009D8A409D0000EC6
:1020D800446E000E436E44C023F043C022F040D04B
:1020E80023C01CF022C01BF025C01EF024C01DF028
:1020F80032EC14F01B502224436E1C502320446EF3
:1021080043C0F6FF44C0F7FFF86A070EF76403D030
:102118000800F55005D0F6CFE9FFF7CFEAFFEF50FA
:102128000009D8B415D043C0F6FF44C0F7FFF86AD9
:10213800070EF76404D0000EF56E0C0006D0F6CF3B
:10214800E9FFF7CFEAFF000EEF6E434A442A04D0B6
:10215800000E446E000E436E23C023F022C022F00E
:102168001200939A939893969394939293908A9A41
:102178008A988A968A948A928A901A0E186EF80E0D
:10218800E82EFED7182EFCD700D0186E010E196E57
:10219800185015D08A9A8A988A868A848A928A9050
:1021A8008A9A8A988A868A848A828A90070E186E02
:1021B8007D0EE82EFED7182EFCD700F0192A030E44
:1021C8001964E8D78A9A8A988A868A948A928A9021
:1021D8008A9A8A988A868A948A828A9000F000D09D
:1021E80000D08A9A8A988A868A948A928A90070E58
:1021F800186E7D0EE82EFED7182EFCD700F0186E4C
:10220800280E196E1850195099EC0FF0186E100E10
:10221800196E1850195099EC0FF0186E010E196EBE
:102228001850195099EC0FF0186E0F0E196E1850BF
:10223800195099EC0FF0120055D01BC0F6FF1CC0C6
:10224800F7FFF86A070EF76403D00800F55005D0C9
:10225800F6CFE9FFF7CFEAFFEF500009D8B41AD05C
:102268001DC0F6FF1EC0F7FF0800F5CF21F01BC008
:10227800F6FF1CC0F7FFF86A070EF76403D00800E2
:10228800F55005D0F6CFE9FFF7CFEAFFEF50211858
:10229800D8B424D01DC0F6FF1EC0F7FF0800F550C3
:1022A800216E226A211E221E214A222A1BC0F6FF05
:1022B8001CC0F7FFF86A070EF76403D00800F55052
:1022C80005D0F6CFE9FFF7CFEAFFEF50236E235092
:1022D80021241B6E000E22201C6E10D01B4A1C2AC3
:1022E8001D4A1E2A1F06D8A020061F28D8B4202859
:1022F800D8A4A3D7000E1C6E000E1B6E1200060099
:10230800EACF0AF0E1CF0BF0E2CF0CF0D9CF0DF015
:10231800DACF0EF0F3CF0FF0F4CF10F0F6CF11F0C4
:10232800F7CF12F0F8CF13F0F5CF14F09EAA29D00A
:102338009E9AAECF46F04950D8B40BD00001000E9B
:10234800026E0001600E016E46C003F0AAEC14F0A4
:1023580018D04650720AD8A414D07C0E026E0F0E04
:10236800016E9EEC0DF0066E010E496E06500001DE
:10237800000E026E0001600E016E46C003F0AAEC6A
:1023880014F014C0F5FF13C0F8FF12C0F7FF11C016
:10239800F6FF10C0F4FF0FC0F3FF0EC0DAFF0DC048
:1023A800D9FF0CC0E2FF0BC0E1FF0AC0EAFF09C079
:1023B800E9FF08C0FBFF07C0FAFF1100196E000E05
:1023C8001B6E19501850800AF36E800EF35C000ED5
:1023D800D8B4175CD8B008D0176C181ED8B0182A13
:1023E800196E010E1B6E19501650800AF36E800E7E
:1023F800F35C000ED8B4155CD8B006D0156C161E68
:10240800D8B0162A010E1B1A000E1D6E000E1C6E87
:1024180018501710D8B41ED0196E010E1A6E195024
:1024280004D0D890173618361A2A18AEFAD7D8908A
:102438001C361D361750155C18501658D8A005D0F4
:102448001750155E1850165A1C80D890183217323B
:102458001A2EEDD71B50D8B404D01C6C1D1ED8B052
:102468001D2A1CC015F01DC016F01200D08EF28E69
:102478001AD0F28AD58E4BD09D80CD8048D09D82CF
:10248800CA8445D0A082B18042D0F288F19C3FD066
:10249800F086F19A3CD0F088F19839D09D8C37D0ED
:1024A8009D8A9F8A34D015C017F016C018F01850AE
:1024B8009D0AD8B40AD03D0AD8B415D0500AD8B469
:1024C80017D0020AD8B41CD022D01750010AD8B4A9
:1024D800D3D7030AD8B4D3D7220AD8B4E1D7600A2D
:1024E800D8B4DCD714D01750020AD8B4CBD70FD041
:1024F8001750080AD8B4CCD7180AD8B4CCD707D004
:102508001750100AD8B4C1D7300AD8B4B2D71200BD
:1025180031D025C01CF024C01BF027C01EF026C0F7
:102528001DF027C016F026C015F0AAEC15F015C04E
:102538001FF016C020F020EC11F01C501B10D8A47E
:1025480005D025C025F024C024F02FD0010E242466
:10255800156E000E2520166E26C0F6FF27C0F7FF61
:102568000800F550176E186AE2EC14F015C024F054
:1025780016C025F025502410D8B413D024C0F6FF77
:1025880025C0F7FFF86A070EF76403D00800F55076
:1025980005D0F6CFE9FFF7CFEAFFEF500009D8A43E
:1025A800B8D7000E256E000E246E1200196E000EAC
:1025B8001B6E19501650800AF36E800EF35C000EE5
:1025C800D8B4155CD8B008D0156C161ED8B0162A29
:1025D800196E010E1B6E19501850800AF36E800E8A
:1025E800F35C000ED8B4175CD8B004D0176C181E72
:1025F800D8B0182A18501710D8B41AD0196E010E6E
:102608001A6E195004D0D890173618361A2A18AEF0
:10261800FAD71750155C18501658D8A004D0175080
:10262800155E1850165AD890183217321A2EF1D74C
:102638001B50D8B404D0156C161ED8B0162A15C075
:1026480015F016C016F01200E8CF1BF00DD0185088
:102658007F0F08D01850BF0F05D01850930F02D025
:102668001850D30F1C6E0DD01B50010AD8B4EFD7E9
:10267800030AD8B4EFD7010AD8B4EFD7070AD8B4F9
:10268800EFD71C5099EC0FF014D019C0F6FF1AC000
:10269800F7FFF86A070EF76403D00800F55005D075
:1026A800F6CFE9FFF7CFEAFFEF50F6EC0EF0194A44
:1026B8001A2A19C0F6FF1AC0F7FFF86A070EF7645E
:1026C80003D00800F55005D0F6CFE9FFF7CFEAFFB1
:1026D800EF500009D8B41200D8D7000E1E6E000EB5
:1026E8001F6E000E206E000E216E1C5019101A105D
:1026F8001B10D8B42CD01D6E010E226E1D5006D0B2
:10270800D89019361A361B361C36222A1CAEF8D732
:10271800D8901E361F36203621361950155C1A50AF
:1027280016581B5017581C501858D8A009D01950C3
:10273800155E1A50165A1B50175A1C50185A1E80EC
:10274800D8901C321B321A321932222EE1D71EC001
:1027580015F01FC016F020C017F021C018F01200A5
:10276800948E949C240EAC6E900EAB6E080EB86ED0
:10277800400E156E420E166E0F0E176E000E186E76
:1027880023C019F024C01AF025C01BF026C01CF085
:1027980071EC13F015C027F016C028F017C029F007
:1027A80018C02AF0395027242B6E000E28202C6ED2
:1027B800000E29202D6E000E2A202E6EFF0E2B24CF
:1027C8002F6EFF0E2C20306EFF0E2D20316EFF0E67
:1027D8002E20326E30C0B0FF2FC0AFFF1200000EA7
:1027E800216E000E206E04D01B4A1C2A204A212A82
:1027F8001BC0F6FF1CC0F7FFF86A070EF76403D08A
:102808000800F55005D0F6CFE9FFF7CFEAFFEF5003
:102818000009D8B41ED01EC016F01DC015F01BC08C
:10282800F6FF1CC0F7FFF86A070EF76403D008002C
:10283800F55005D0F6CFE9FFF7CFEAFFEF501F6E4E
:102848001F50176E186AE2EC14F016501510D8A431
:10285800CBD720C01BF021C01CF01200000E216E47
:10286800000E206E04D01B4A1C2A204A212A1BC0B5
:10287800F6FF1CC0F7FFF86A070EF76403D00800DC
:10288800F55005D0F6CFE9FFF7CFEAFFEF50000982
:10289800D8B41ED01EC016F01DC015F01BC0F6FF20
:1028A8001CC0F7FFF86A070EF76403D00800F5505C
:1028B80005D0F6CFE9FFF7CFEAFFEF501F6E1F50A4
:1028C800176E186AE2EC14F016501510D8B4CBD76E
:1028D80020C01BF021C01CF0120020EE40F0155063
:1028E800D9261650DA22DECF17F0DDCF18F01750B0
:1028F8001524D96E18501620DA6EDF50196E20EEA6
:1029080040F01550D9261650DA22DECF17F0DDCF69
:1029180018F0010E1726000E18223F0E1716000E8B
:10292800181620EE40F01550D9261650DA2217C096
:10293800DEFF18C0DDFF20EE44F01550D9261650F2
:10294800DA22DE06000EDD5A1950120020EE42F09F
:102958000150D9260250DA22DECF04F0DDCF05F08F
:1029680004500124D96E05500220DA6E03C0DFFF3F
:1029780020EE42F00150D9260250DA22DECF04F0D0
:10298800DDCF05F0010E0426000E05223F0E0416C9
:10299800000E051620EE42F00150D9260250DA2228
:1029A80004C0DEFF05C0DDFF20EE44F00150D9264B
:1029B8000250DA22DE2A000EDD22120015C0F6FFD0
:1029C80016C0F7FFF86A070EF76403D00800F55041
:1029D80005D0F6CFE9FFF7CFEAFFEF501718D8A4D4
:1029E80005D016C016F015C015F01DD01550196E7B
:1029F80016501A6E154A162A19C0F6FF1AC0F7FFA4
:102A0800F86A070EF76403D00800F55005D0F6CF32
:102A1800E9FFF7CFEAFFEF500009D8A4CFD7000E9F
:102A2800166E000E156E1200FD0EA96EA69EA69CCF
:102A3800A680A8B01DEF15F0660ED36ED3A4FED7FE
:102A4800FD0EA96EA9500B0BA66EA866FED735C061
:102A58001CF036C01DF0000E186E7E0E176EA9CF42
:102A680015F0166ADAEC12F0153A163AF00E161648
:102A780015500F0B1612F00E151615C01EF016C0C5
:102A88001FF07FEC15F01C503A6E3A50D9EC16F056
:102A9800396E120000EE60F0860EEE6AE806FDE17F
:102AA80000EE43F0090EEE6AE806FDE1EC0EF66E64
:102AB8002B0EF76E000EF86E01EE00F010EE40F0EF
:102AC8000900F5CFEEFFE550E150FAE1DE0EF66EB3
:102AD8002D0EF76E000EF86E00EE35F010EE0EF0CB
:102AE8000900F5CFEEFFE550E150FAE1000EF86E6F
:102AF80000013FEF08F0000E236E000E226E1F50FB
:102B08001E10D8B41ED0206E010E216E205004D0A5
:102B1800D8901E361F36212A1FAEFAD7D8902236F3
:102B280023361E501C5C1F501D58D8A005D01E50BF
:102B38001C5E1F501D5A2280D8901F321E32212E33
:102B4800EDD722C01CF023C01DF0120016C01AF0E9
:102B580015C019F002D0194A1A2A19C0F6FF1AC06E
:102B6800F7FFF86A070EF76403D00800F55005D0A0
:102B7800F6CFE9FFF7CFEAFFEF500009D8A4EBD76B
:102B880015C017F016C018F0171E181E174A182A75
:102B980019501724156E1A501820166E1200275057
:102BA8002610D8B41AD0286E010E296E285004D0E9
:102BB800D89026362736292A27AEFAD72650245CFD
:102BC80027502558D8A004D02650245E2750255ACF
:102BD800D89027322632292EF1D724C024F025C0D8
:102BE80025F0120073616E7573622E746B0000001D
:102BF80000000000000000000000000000000000CD
:102C080000000000000000000000000000000000BC
:102C180000000000000000000000000000000000AC
:102C28000000000020EE40F01550D9261650DA2298
:102C3800000EDE6E000EDD6E20EE42F01550D92635
:102C48001650DA22000EDE6E000EDD6E20EE44F025
:102C58001550D9261650DA22000EDE6E000EDD6EF3
:102C68001200186E000E476E18500CD04750010D18
:102C7800F3501624D96EF4501720DA6EDF50E7ECC3
:102C880016F0472A4750010DF3501624D96EF45018
:102C98001720DA6EDF50D8B41200E8D715501702A3
:102CA800F3CF19F0F4CF1AF015501802F3CFF4FF50
:102CB800F36AF3501926F4501A2216501702F3CF6C
:102CC800F4FFF36AF3501926F4501A2219C015F0CC
:102CD8001AC016F01200000ED66EC10ED56E000E88
:102CE800186E000E176E08D0D650060FD66EF294E6
:102CF800F2A4FED7174A182A1550175C1650185810
:102D0800D8B01200F1D716C01CF015C01BF008D0BF
:102D18001BC0D9FF1CC0DAFF17C0DFFF1B4A1C2AE3
:102D28001906D8A01A061928D8B41A28D8B4120037
:102D3800EFD70001000E166E0001A60E156E000EEC
:102D4800186E000E176E000E1A6E400E196E87EC84
:102D580016F01D6E000E486E1D501200E8CF17F0D9
:102D6800156E000E166E15503A0E175CD8B007D0C7
:102D78002F0E176404D0156E010E166E155016C06E
:102D880015F015301200000E186E000E176E06D0E2
:102D9800FA0E00F0E82EFDD7174A182A1550175CCE
:102DA80016501858D8B01200F3D7E8CF15F015C050
:102DB800A9FFA694A69EA69CD3AA02D0A68001D05D
:102DC800A690A8501200E8CF15F0ACA2FED7395053
:102DD8001524AD6E1200DF0F50000FDF636F6469BA
:102DE800676F0000E8CF15F09EA8FED715C0ADFFAD
:022DF8001200C7
:020000040020DA
:08000000FFFFFFFFFFFFFFFF00
:020000040030CA
:0E00000000051F1FFF8385FF0FC00FE00F409C
:00000001FF
